:100000000C9448040C9465040C9465040C945B1FD8
:100010000C9465040C9465040C9465040C946504BC
:100020000C9465040C9465040C9414100C94D00F7B
:100030000C9480190C9465040C9465040C9465046C
:100040000C9465040C9465040C9465040C9465048C
:100050000C9465040C94EC100C9465040C946504E9
:100060000C9465040C9465040C9465040C9465046C
:100070000C9465040C9465040C9465040C9465045C
:100080000C9465040C9465040C9465040C9465044C
:100090000C9465040C9465040C9465040C9465043C
:1000A0000C9465040C9465040C94650429001E00EE
:1000B0001F002000210022002B0014001A0008005D
:1000C00015001700E00004001600070009000A00F0
:1000D000E1001D001B000600190005000000E20001
:1000E000E30021522C002F003500270026002500B8
:1000F000240023002D00130012000C0018001C0027
:10010000340033000F000E000D000B00E500380036
:1001100037003600100011000000E7002A002252CC
:100120002800300001000100010001000100010071
:100130003A003B003C003D003E003F0035001E02FF
:100140001F02200221022202010001000100010021
:100150000100010000000100010001000100010098
:100160000100010001000100010001004500440000
:1001700043004200410040003502270226022502CA
:1001800024022302310230022F022E022D0200002F
:100190000000010001000100010001000100010058
:1001A000010001000100010035001E001F002000B9
:1001B000210022003A003B003C003D003E003F0091
:1001C000400041004200430044004500000001009F
:1001D0000100010001000100010001000100010017
:1001E0000100010001002700260025002400230053
:1001F00000004F005200510050000000310030005C
:100200002F002E002D002E02000001000100010031
:1002100001000100000000000000000000000000DC
:1002200000000000000000000000000000000000CE
:1002300000000000000000000000000000000000BE
:1002400000000000000001000100010001000000AA
:10025000000000000000000000000000000000009E
:10026000000000000000000000000000000000008E
:10027000000000000000000000000000000000007E
:1002800000000100010001000100000000DA02810D
:10029000FFD9F1DB20A4A62EAF00A0C0D30000A19F
:1002A000C8D30000AED580A81F408D14200000AF39
:1002B00000AE05010906A101050719E029E71500AF
:1002C00025019508750181029501750881010507D1
:1002D000190029FF150026FF009506750881000505
:1002E000081901290515002501950575019102954B
:1002F0000175039101C009022200010100A0FA0961
:100300000400000103010100092111010001224440
:100310000007058103080001120100020000000827
:10032000D8042DEB0001010200010E034C0069000E
:100330006C00790035003800000010036C00690083
:100340006C00690075006D0073000000040309046F
:100350000000000000003E5B4F5B3E003E6B4F6BB9
:100360003E001C3E7C3E1C00183C7E3C18001C5786
:100370007D571C001C5E7F5E1C0000183C180000AE
:10038000FFE7C3E7FF00001824180000FFE7DBE7E2
:10039000FF0030483A060E00262979292600407FC2
:1003A00005050700407F05253F005A3CE73C5A0001
:1003B0007F3E1C1C0800081C1C3E7F0014227F226C
:1003C00014005F5F005F5F0006097F017F00006629
:1003D00089956A0060606060600094A2FFA294004A
:1003E00008047E04080010207E20100008082A1C43
:1003F0000800081C2A0808001E10101010000C1E0F
:100400000C1E0C0030383E383000060E3E0E060042
:1004100000000000000000005F000000000700076F
:100420000000147F147F1400242A7F2A1200231353
:100430000864620036495620500000080703000097
:10044000001C224100000041221C00002A1C7F1CCD
:100450002A0008083E0808000080703000000808E4
:100460000808080000006060000020100804020076
:100470003E5149453E0000427F40000072494949D3
:1004800046002141494D33001814127F10002745C2
:10049000454539003C4A49493100412111090700CD
:1004A000364949493600464949291E0000001400D2
:1004B0000000004034000000000814224100141421
:1004C0001414140000412214080002015909060006
:1004D0003E415D594E007C1211127C007F49494912
:1004E00036003E41414122007F4141413E007F496B
:1004F000494941007F09090901003E41415173000A
:100500007F0808087F0000417F4100002040413FF4
:1005100001007F08142241007F40404040007F02DC
:100520001C027F007F0408107F003E4141413E00D5
:100530007F09090906003E4151215E007F09192902
:10054000460026494949320003017F0103003F402C
:1005500040403F001F2040201F003F4038403F00E8
:100560006314081463000304780403006159494DBF
:100570004300007F41414100020408102000004177
:1005800041417F000402010204004040404040001D
:100590000003070800002054547840007F2844449A
:1005A0003800384444442800384444287F003854F4
:1005B0005454180000087E0902001824241C7800F6
:1005C0007F080404780000447D4000002040403D46
:1005D00000007F102844000000417F4000007C04A0
:1005E000780478007C0804047800384444443800D7
:1005F0007C1824241800182424187C007C08040487
:10060000080048545454240004043F4424003C404F
:1006100040207C001C2040201C003C4030403C001E
:100620004428102844004C9090907C004464544C22
:10063000440000083641000000007700000000413F
:10064000360800000201020402003C2623263C007A
:10065000000000000080808080000000000080E03A
:1006600070180C1830E080000010F89010307830CE
:1006700010B8FC3810000000000000F8FCF8000082
:1006800000000000000000000000001C9C1C000096
:100690000000F8FCF80000000000001CFCF8C0009E
:1006A000000000000080E0F87C1C000000F0FCFC72
:1006B000FC1C1C1C1C1C1C1C1C000000000000C09E
:1006C000F0F8381C1C1C1C1C1C3CF8F0E000E0F08E
:1006D000F0F0E0ECEEF7F37020007C7C7C7E007E96
:1006E0007E7E7F7F7F000080C0E07E5B4F5BFEC030
:1006F0000000C000DCD7DEDEDED7DC00C00000007A
:1007000000000000000000000000000000000000E9
:1007100000000000000FBCE0818181838382870C90
:10072000183060C000001FFE90B9FFBB91983C18C4
:1007300011133F1100000000000000FFFFFF000048
:100740000000000000000000000000FFFFFF0000AC
:100750000000FFFFFF0000000000000000030F7F0B
:10076000F8E080F0FC3F0F0100000000003F3F3F39
:100770001C1C1C1C1C3C78F8F0E08000000000C32E
:10078000E7FF7E3C3878787070F8FFDF87000F1F36
:100790003F7F7F7F7F7F3F1E0C001F1F1F3F003F5B
:1007A0003F3F7F7F7F00307B7F7830202030787F15
:1007B0003B0003000F7F0F0F0F7F0F0003000000AF
:1007C0000000000000000000000000000000000029
:1007D000183C24666341C18180808080808081C113
:1007E0004162386C4CC68181808080808081C143A9
:1007F00062361C1800000000000000FFFFFFC0C0B0
:10080000C0C0C0C0C0C0C0800000007FFF7F00002B
:1008100000007FFFFFC080000000E0E0C0C0C0E03B
:10082000F97F1F0700000000000000000070F0E0EA
:10083000E0C0C0C0C0E0F0F87F3F0F0000000F3FF5
:100840007FF9E0E0C0C0C0C0C0E0F97F3F1F0000FA
:100850000000000000000000000000000000000098
:100860000000000000000000000000000000000088
:100870000000000000000000000000000000000078
:100880000000000000000000000000000000000068
:1008900011241FBECFEFDAE0DEBFCDBF12E0A0E033
:1008A000B1E0E8E5F8E402C005900D92A231B1078D
:1008B000D9F725E0A2E1B2E001C01D92AA37B20744
:1008C000E1F70E94A7190C94EB230C940000482F29
:1008D00020916B039091320357E0291302C080E00E
:1008E000089530E0529FF001539FF00D1124ED5C0C
:1008F000FC4F8181681306C08081481303C0858145
:100900008111EECF2F5F3F4F2770E7CFFC01AC0185
:100910004B5F5F4F8FEF91E32191822728E030E01A
:1009200087FF09C0880F892721503109C9F7E417CB
:10093000F50791F70895880FF7CF982F9093E90066
:10094000891779F05091EC002091ED004091F00072
:1009500021FD0AC09F5F973089F78093E90081E00D
:100960000895562F40E022E03091EB003E7F309317
:10097000EB003091ED003D7F3093ED003091EB00C6
:1009800031603093EB005093EC002093ED004093E6
:10099000F0002091EE0027FDDDCF80E00895E8ED26
:1009A000F0E080818E7F80831092E2001092DA0066
:1009B0001092E100A0EEB0E08C9181608C93808178
:1009C0008F77808319BCA7EDB0E08C918E7F8C93DC
:1009D00080818F7E808310921B030895B0E0A0E099
:1009E000E4EFF4E00C949520C8EDD0E088818F7E90
:1009F0008883E7EDF0E080818160808384E082BFBE
:100A000081E080931B0388818E7F888302EE10E053
:100A1000F80110821092DA0081EEC82ED12CF60176
:100A2000108288818F778883888180688883888115
:100A30008F7D888319BC1092310310922803109285
:100A400027031092260390EEE92EF12CF701808106
:100A50008B7F808388818160888360E080E00E9452
:100A60009D04F60180818E7F8083F8018081816002
:100A70008083808188608083F70180818E7F80837E
:100A8000888180618883CDB7DEB7E8E00C94B1201F
:100A90002091E4003091E50095E6A9012091EC0059
:100AA000822F817020FF06C08091E80080FF06C081
:100AB00080E008952091E80022FD1AC08091310362
:100AC000882389F0853089F08091EB0085FD0FC087
:100AD0002091E4003091E50042175307F9F291505C
:100AE000E1F684E0089582E0089583E0089581E0CE
:100AF00008958091290387FF13C08091E80082FF49
:100B000006C08091E8008B778093E80004C0809154
:100B100031038111F2CF0895809131038823D9F3F5
:100B20008091E80080FFF8CF8091E8008E77ECCFCD
:100B3000FC0180912F039091300386179707A0F056
:100B40006115710529F49091E8009E779093E80073
:100B500090E06115710551F4911108C08091E80091
:100B600082FF34C080E00895BC01F2CF8091310350
:100B70008823C1F18530C1F18091E80083FD30C048
:100B80008091E80082FDEACF8091E80080FFE1CF0C
:100B90008091F3002091F200382F6115710519F052
:100BA0002830310558F091E02830310509F090E007
:100BB0002091E8002E772093E800CBCF819180939D
:100BC000F100615071092F5F3F4FE7CF80913103F2
:100BD000882341F0853041F08091E80083FFBECF4B
:100BE00081E0089582E0089583E0089508950895CE
:100BF000089580911D0308952FB7F894609117030D
:100C0000709118038091190390911A032FBF0895D2
:100C10009C01FC0132969FEF80E04191461751F014
:100C20009F3F19F4411101C0982F8F5F8630A9F7BB
:100C30009F3F09F40895290F311D97FD3A95F90159
:100C40006283089580911203882359F0E091140380
:100C5000F0911503309729F00190F081E02D09956E
:100C6000089580E0089580E00895F894E82FE295D3
:100C7000EF70F0E031A1282F2F7081E090E001C0EB
:100C8000880F2A95EAF7982F9095932391A392A124
:100C9000892B82A3789408950F931F938091120358
:100CA000882329F00E94FC051F910F9108950E944E
:100CB000FC05009177021091780220917902309121
:100CC0007A02600F711F821F931FEECF90918902ED
:100CD00092FF10C041E0282F2471243009F040E039
:100CE00031E0282F2871283009F030E0431711F047
:100CF0002CE0822793FF10C041E0282F247124317B
:100D000009F040E031E0282F2871283109F030E067
:100D1000431711F02CE0822730918A0230FF10C077
:100D200051E0282F2171213009F050E041E0282FB7
:100D30002871283009F040E0541711F029E082278B
:100D400031FF10C041E0282F2171213109F040E02E
:100D500031E0282F2871283109F030E0431711F0D5
:100D600029E0822794FD877E089582389105B9F1A4
:100D7000B0F48133910509F47DC048F489329105BE
:100D800009F46DC08A32910509F47BC0089585335A
:100D9000910509F45FC08933910509F10895833EF7
:100DA0009105D9F138F4803E910529F1823E9105F3
:100DB00079F10895863E9105D9F1873E910509F4B0
:100DC0003EC0843E910541F520918A0221FF24C056
:100DD0008091890284FD19C087EE90E008952091EA
:100DE0008902237009F05AC020918A0223FF14C09F
:100DF00089E290E008952091890220FD38C0309169
:100E00008A0230FF09C024FF43C090E080E00895CB
:100E10002091890222FDF7CF08952091890222FDB9
:100E20003AC030918A0230FD39C024FFF5CFEDCFB2
:100E30002091890223FFF0CF24FDE7CFCDCF209171
:100E4000890223FD2EC030918A0231FFEECF84EE5D
:100E500090E008952091890225FFDECFC9CF20912F
:100E6000890225FD21C020918A0223FFD5CF89E385
:100E700090E0D2CF2091890226FFCECF8AE290E087
:100E800008952091890226FFC7CF81E390E008955D
:100E900083EE90E0089582EE90E0089580EE90E079
:100EA000089586EE90E0089585E390E00895972FE9
:100EB0007A30B8F46630A8F48430B0F470E026E0FC
:100EC000929F600D711D1124FB019CE3899FE00D31
:100ED000F11D1124EE0FFF1FE455FF4F85919491F2
:100EE000089580E090E0089581E0FCCF1F93CF93B8
:100EF000DF930E94B506EC01C11582E5D80708F022
:100F00003FC0C11590E5D90708F0C2C0C83ED10561
:100F1000C0F4C03ED10580F4C53AD10548F4C430D0
:100F2000D10550F4C130D10539F0D0E0C0E004C0A3
:100F3000CD3CD105D0F3D065CE01DF91CF911F918B
:100F40000895C11580E4D80708F053C0C11590E298
:100F5000D90708F0B7C0C11581E0D80730F38D2F4D
:100F60000E946606182FCE0199270E94B506C12F50
:100F7000D0E0DC2FCC27CC27DF71C82BD92BDCCFDE
:100F8000C03892E5D907A8F4C03682E5D80708F042
:100F900063C0C03492E5D90708F049C0C03282E589
:100FA000D80788F1CF71D0E0DC2FCC27C16FD06A91
:100FB000C3CFC03C92E5D90780F48C2F8F71C03A23
:100FC000D24508F45EC00E946606C82FD0E0DC2F30
:100FD000CC27CC27DF71D062AFCFC03E82E5D807E7
:100FE00008F0A3CFDC2FCC27CC27DF71C06FD06AED
:100FF000A3CFCE0199270E94B506CC27DF70C82B5E
:10100000D92BD06A99CF2C2F2695269590E2299F2F
:10101000900111248C2F8370C1E0D0E002C0CC0F6E
:10102000DD1F8A95E2F7C22BD32BDD6885CF2C2FED
:1010300026952695277080E2289F900111248C2FF9
:101040008370C1E0D0E002C0CC0FDD1F8A95E2F7CB
:10105000C22BD32BDC6870CF2C2F269526952770BA
:1010600090E2299F900111248C2F8370C1E0D0E081
:1010700002C0CC0FDD1F8A95E2F7C22BD32BDA68B2
:101080005BCFC82FD0E0DC2FCC27C46FD06A54CF01
:101090008C2F8F710E94660655E0D695C7955A959C
:1010A000E1F7CF70D0E0DC2FCC27282F30E084FF91
:1010B00005C044E0220F331F4A95E1F7C22BD32B22
:1010C000D0693ACF8D2F8F710E946606182FCE01FE
:1010D00099270E94B506C12FD0E0DC2FCC27CC2762
:1010E000DF71C82BD92B77CF80959091520298232E
:1010F00090935202089580916B039091320398135C
:1011000001C008958F5F8770FACFB0E0A0E0EBE8F0
:10111000F8E00C9494207C010091B8021091B9027F
:101120008091870290918802082B192BCFE0D0E0A4
:10113000CC24C394D12CBC2EC6010C2E02C0880F27
:10114000991F0A94E2F780239123892B49F4219770
:1011500090F7B12C8B2DCDB7DEB7E9E00C94B02021
:10116000B7018C2F0E9457070E947607019779F3E9
:10117000F1CFCF93DF93EC010E948508BE010E945E
:1011800057070E947607DF91CF9108959A3078F53E
:10119000863068F5E82FF0E086E0989FE00DF11DBD
:1011A00011249E2F977083E0F695E7958A95E1F7D5
:1011B000EE0FFF1FEE0FFF1FE05EFD4F50E040E01F
:1011C00080E0219130E0092E02C0369527950A94DF
:1011D000E2F721703327042E01C0220F0A94EAF7A8
:1011E000822B4F5F5F4F4430510559F7089580E0DF
:1011F00008959A3098F5863088F5E82FF0E086E07B
:10120000989FE00DF11D11248E2F877041E001C0E1
:10121000440F8A95EAF783E0F695E7958A95E1F71A
:10122000EE0FFF1FEE0FFF1FE05EFD4F30E020E0EE
:1012300070E05191DF011197CB01022E02C096950B
:1012400087950A94E2F78170819585278423852705
:101250008C932F5F3F4F2430310559F708959C013F
:10126000267033272630310531F488609093B90217
:101270008093B8020895877FF9CF21E030E002C063
:10128000220F331F8A95E2F7209530958091B8029E
:101290009091B902822393230E942F09089590917F
:1012A00047028095892380934702282F277069F48D
:1012B000891759F090918A0292FF07C0869586950A
:1012C00086950E943D0910924702089521E030E082
:1012D00002C0220F331F8A95E2F78091B8029091E5
:1012E000B902822B932B0E942F09089590938802B4
:1012F000809387020895FC0124812223C1F080811C
:1013000091810E94B90892959F70963091F058F49F
:10131000925F9F70923058F4803F19F030F4883E0D
:1013200030F481E008959A5FF4CF843FD1F380E0F8
:101330000895883EB0F3813FD1F7F3CFA6E0B0E047
:10134000E4EAF9E00C949A2049835A8349815A814E
:101350009923A1F0222391F0CA010E948508182F39
:10136000682F89819A810E94F90869817A81812F89
:101370000E9457072696E3E00C94B620CA010E940B
:10138000C608182FF2CFCF93DF93682F81E06A3021
:1013900019F06D3031F480E00E94430ADF91CF9163
:1013A0000895809178059091790526E0FC01A2E7E7
:1013B000B5E001900D922A95E1F7603E08F458C01F
:1013C00026E0FC0111922A95E9F7C0917805D091A9
:1013D000790546E050E0BE0182E795E00E94DD20FD
:1013E0009E0122573340892B41F1C90145E0969572
:1013F00087954A95E1F741E050E0BA0102C0660FD7
:10140000771F8A95E2F7CB016091700370917103A9
:10141000862B972BB9016B5F7F4FE5E0769567953B
:10142000EA95E1F702C0440F551F6A95E2F7842B55
:10143000952B90937103809370032A5F3F4F4091E7
:101440006F03642F70E0C9010E947720481B46306B
:1014500010F4240F311D211572E0370710F030E031
:1014600020E02E583C4F309379052093780596CF95
:10147000F6E06F9FB0011124605B7C4F46E050E0C6
:101480000E94D420A2CFCF93382FE0917805F0911D
:101490007905E257F34020916F03622F70E0CF018E
:1014A0000E947720281B822F332361F066E00E9480
:1014B000C220C82FC15010F4CF91089580E20E943D
:1014C000C309F8CF9F01280F311D2115324018F0B4
:1014D00080E0F0E0E0E08E0F9F2F911D8E589C4F32
:1014E0009093790580937805E7CF209152028091FF
:1014F0004902282B80914802882381F0282B30E074
:1015000086E192E0FC014191CF0141113F5FF2E0A1
:101510008C319F07B9F731111092480220931402C1
:1015200048E050E06AE472E084E192E00E94DD204D
:10153000892BA9F088E0E4E1F2E0AAE4B2E00190AE
:101540000D928A95E1F7E0911403F091150330971D
:1015500031F00280F381E02D84E192E00995089555
:1015600010925202E6E1F2E086E0DF011D928A95D8
:10157000E9F7109249020E94750A0895AAE2B0E0C4
:10158000E4ECFAE00C949A2089E293E02091F100D7
:10159000FC012193CF01F3E081339F07B9F78091DC
:1015A0002A03833009F470C0B8F4813009F447C0CD
:1015B000823009F4B1C08091E80083FF64C2809159
:1015C000290390912A039A3008F05DC2E92FF0E0D8
:1015D000E351FC4D0C94CE208A3009F48CC08B3042
:1015E00009F46FC0893039F780912903813219F7E6
:1015F00080912D0390912E03892BE9F68091E800CC
:10160000877F8093E8008091E80082FF38C0909146
:10161000F3008091F200029731F48091F100813063
:1016200011F0863021F48091F10080931D038091A8
:10163000E8008B778093E8000E947905BCCF809109
:101640002903813A09F0B7CF8091E800877F809322
:10165000E80080912D0390912E03892B61F468E0BE
:101660008EE193E070E00E9498058091E8008B770E
:101670008093E800A0CF60E090E080E0F3CF80911D
:1016800031038111C0CF97CF80912903813A09F0AE
:1016900092CF80912D0390912E03892B09F08BCF4F
:1016A0008091E800877F8093E8008091E80080FFC8
:1016B000FCCF80916A018093F1008091E8008E77E1
:1016C000B9CF80912903813209F075CF80912D0324
:1016D00090912E03892B09F06ECF8091E800877FCF
:1016E0008093E8000E94790580912B0380936A0122
:1016F0000E94B00A60CF80912903813209F05BCF4C
:101700008091E800877F8093E8000E9479058091AE
:101710002C0380931C034FCF80912903813A09F059
:101720004ACF8091E800877F8093E8008091E800AD
:1017300080FFFCCF80911C03BECF803899F08238A7
:1017400009F0A1C180912D038F70873008F09BC1F3
:101750008093E9008091EB0085FB882780F9109247
:10176000E90006C0809126039091270391118260C1
:101770009091E800977F9093E8008093F100109299
:10178000F1008091E8008E777AC1882309F468C15E
:10179000823009F078C180912B0381116BC1809157
:1017A0002D038F702FEF280F263008F06CC1809327
:1017B000E9002091EB0020FF5DC1933031F480916E
:1017C000EB0080628093EB0055C19091EB0090613B
:1017D0009093EB0021E030E001C0220F8A95EAF7F8
:1017E0002093EA001092EA008091EB008860EACF33
:1017F000811149C110912B031F778091E3008078FC
:10180000812B8093E3008091E800877F8093E8003C
:101810000E9479058091E80080FFFCCF8091E30071
:1018200080688093E30082E0111183E080933103AC
:101830002AC18058823008F026C180912B039091F4
:101840002C038C3D23E09207A1F583E08A838AE292
:1018500089834FB7F894DE01139620E03EE051E211
:10186000E32FF0E050935700E49120FF03C0E2958E
:10187000EF703F5FEF708E2F90E0EA30C0F0C796B8
:101880008D939D932F5F243159F74FBF8091E800CE
:10189000877F8093E8006AE270E0CE0101960E94A3
:1018A00098058091E8008B778093E800ECC0C096A3
:1018B000E7CF40912D0350912E03292F332723305A
:1018C000310509F43FC078F52130310509F466C0CF
:1018D00082E290E0E6EFF2E02230310509F0D3C079
:1018E0002091E800277F2093E80020912F0330917A
:1018F00030038217930708F49C0140E0211531055D
:1019000009F051C041114FC08091E80082FDC9CF5C
:1019100080913103882329F2853019F28091E80003
:1019200083FFF2CFBECF2132310581F12232310562
:1019300009F0A9C0452B09F0A6C084E490E0E2EBD1
:10194000F2E0CECF992781309105C1F0009759F090
:10195000029709F098C0EAE2F3E0E4918E2F90E05C
:10196000EAE2F3E007C0ECE4F3E0E4918E2F90E0CC
:10197000ECE4F3E0009709F0B3CF85C0EAE3F3E0CD
:10198000E4918E2F90E0EAE3F3E0F4CF452B09F0E9
:101990007AC089E090E0E8E0F3E0A2CF82E190E055
:1019A000E8E1F3E09DCF80913103882309F479CFFA
:1019B000853009F476CF8091E80083FD72CF809165
:1019C000E80082FDA1CF8091E80080FF97CF909141
:1019D000F3008091F2002115310519F0883091054E
:1019E00050F041E0089709F040E08091E8008E77E0
:1019F0008093E80083CF44914093F10031962150C9
:101A000031090196E8CF8038F1F58091E800877FB1
:101A10008093E800809128038093F100B2CE811179
:101A200032C010912B03123070F58091E800877F4F
:101A30008093E800109328030E947905112311F088
:101A400084E005C08091E30087FDFACF81E08093B8
:101A5000310361EC81E00E949D048091310313C049
:101A600080912B03813079F481E0933009F080E09C
:101A7000809327031092E9008091E800877F80938C
:101A8000E8000E9479058091E80083FF0AC08091F8
:101A9000E800877F8093E8008091EB00806280936C
:101AA000EB00AA96E3E00C94B620882321F00E9474
:101AB00074080E94750A0895882339F090915202A3
:101AC000982B909352020E94750A0895882391F0F2
:101AD0009CEF980F913A78F4E6E1F2E09191891346
:101AE00003C0DF0111971C9292E0EC31F907B1F7C6
:101AF0000E94750A089590E2980F9830D8F7877081
:101B000091E001C0990F8A95EAF7892F0E94740825
:101B1000EFCFCF93C82F8823A9F08CEF8C0F813A99
:101B200000F5E6E1F2E0DF018D91C81769F082E08F
:101B3000AC31B807C9F76C2F84E192E00E94080627
:101B40000E94750ACF9108958191C81303C0DF01E7
:101B500011971C9282E0EC31F807B1F70E94750AE8
:101B6000EACF80E28C0F883068F7C77021E030E060
:101B700001C0220FCA95EAF780915202822B80930E
:101B80005202DECF0F931F93CF93DF93EC01FC0142
:101B900001900020E9F78F0101501109C017D1070A
:101BA00028F0DF91CF911F910F91089589910E94A4
:101BB000C309F4CF0F931F93CF93DF938C018091D0
:101BC0003103843059F581E08093E9008FEF9091E3
:101BD000E800815095FD06C095ED9A95F1F700005B
:101BE0008111F5CF8091E80085FF18C00E9448055B
:101BF00081110FC0C8E0D0E08091E80085FD13C0DE
:101C00008091E8008E778093E8000E944805882341
:101C100099F38091E8008E778093E800DF91CF916F
:101C20001F910F910895F80181918F018093F10028
:101C3000219711F7EECFCF93DF93EC010E94DA0DDD
:101C400088E0FE01AEE1B3E001900D928A95E1F7E4
:101C5000DF91CF910895B0E0A0E0E1E3FEE00C94C5
:101C600093207C015B016A018091760201E010E023
:101C70008A3010F40AE010E0C1E0D0E0B501C701FD
:101C8000F6010995811104C021960C171D072CF44B
:101C9000CDB7DEB7EAE00C94AF20CC9F9001CD9F8A
:101CA000300D300D112490E080E045E34A95F1F7C6
:101CB0000000019682179307C1F7E0CF0E94B00A97
:101CC0002FEF84E39CE0215080409040E1F700C07A
:101CD000000088E19AE00FB6F894A8958093600020
:101CE0000FBE90936000FFCFAB0124E630E0BC0153
:101CF00088E70E942B1E21E0892B09F020E0822F2B
:101D000008958091100390911103911103C091E007
:101D100089270895882369F062E070E080EB92E003
:101D20000E94740E811103C08091100308951092D7
:101D3000100380911003EBCFCF93C09110038091DB
:101D400011038823D1F00E94FC05605A75418F4F22
:101D50009F4F60930C0370930D0380930E03909339
:101D60000F03C11108C062E070E08EEA92E00E94A9
:101D7000740E811105C0C09110038C2FCF9108956E
:101D800081E080931003F7CF90918A0292FB222783
:101D900020F9281779F080FB92F990938A026091DC
:101DA000890270918A0284E090E00E94D52382E04B
:101DB0000E944F090895A4E0B0E0E1EEFEE00C942B
:101DC0009A20409172025091730260917402709156
:101DD00075022FB7F8948091170390911803A09182
:101DE0001903B0911A032FBF841B950BA60BB70BD9
:101DF00011E084369105A105B10570F10E944C06F1
:101E00006E5F7F4F8F4F9F4F69837A838B839C8355
:101E1000809111019091120188599D4F40911001BC
:101E200050E04530510510F044E050E0BE016F5FD6
:101E30007F4F0E94EA2082E090E00E940120182F4C
:101E4000882351F00E94FC05609372027093730224
:101E50008093740290937502812F2496E3E00C9492
:101E6000B620EF92FF921F93CF93DF9300D000D064
:101E700000D0CDB7DEB77B0190E080E00E9401206A
:101E8000182F882309F480C04091030150E04115C8
:101E9000510511F041E050E060910401709105019D
:101EA00068597D4FCE0106960E94EA204091640257
:101EB0005091650260916602709167022FB7F894A5
:101EC0008091170390911803A0911903B0911A0300
:101ED0002FBF841B950BA60BB70B84369105A1056C
:101EE000B10540F489E692E00E9486049E8189173C
:101EF00009F44AC081E090E00E940120811116C0DF
:101F000010E085E0EFE5F2E0D70101900D928A95AF
:101F1000E1F7812F26960FB6F894DEBF0FBECDBF36
:101F2000DF91CF911F91FF90EF90089540910B01A9
:101F300050E04630510510F045E050E060910C0152
:101F400070910D0168597D4FCE0101960E94EA20E3
:101F500089E692E00E9486049E818913D1CF0E9477
:101F6000FC0560936402709365028093660290930F
:101F7000670285E0FE013196AFE5B2E001900D9277
:101F80008A95E1F711E0BDCF85E0E9E6F2E0DE01F8
:101F9000119601900D928A95E1F71111EACFB1CF18
:101FA0001F920F920FB60F9211242F933F934F93CE
:101FB0005F936F937F938F939F93AF93BF93CF93D1
:101FC000DF93EF93FF93D091E900DF708091EC00F5
:101FD000C82FC17080FDC0E81092E9008091F00028
:101FE000877F8093F00078940E94BE0A1092E900E7
:101FF0008091F00088608093F000CD2BCF70C0936B
:10200000E900FF91EF91DF91CF91BF91AF919F9147
:102010008F917F916F915F914F913F912F910F9091
:102020000FBE0F901F9018951F920F920FB60F9230
:1020300011242F933F934F935F936F937F938F93CD
:102040009F93AF93BF93EF93FF938091E10082FF43
:1020500009C08091E20082FF05C08091E1008B7F82
:102060008093E1008091DA0080FF24C08091D80045
:1020700080FF20C08091DA008E7F8093DA0080910B
:10208000D90080FF9CC080E189BD82E189BD09B48F
:1020900000FEFDCF81E08093310380911B0381110D
:1020A00009C00E94CF040E94EE048091E200846087
:1020B0008093E2008091E10080FF17C08091E200F0
:1020C00080FF13C08091E2008E7F8093E2008091B8
:1020D000E20080618093E2008091D800806280936A
:1020E000D80019BC85E0809331038091E10084FF22
:1020F0002BC08091E20084FF27C080E189BD82E18E
:1021000089BD89B5982F917080FFFBCF8091D80051
:102110008F7D8093D8008091E1008F7E8093E100D5
:102120008091E2008F7E8093E2008091E2008160E6
:102130008093E20080912803882309F446C084E05C
:1021400080933103809131038091E10083FF26C0A9
:102150008091E20083FF22C08091E100877F80931D
:10216000E10082E080933103109228038091E10026
:102170008E7F8093E1008091E2008E7F8093E20069
:102180008091E20080618093E20060E080E00E9444
:102190009D048091F00088608093F000FF91EF91A2
:1021A000BF91AF919F918F917F916F915F914F916F
:1021B0003F912F910F900FBE0F901F90189519BC53
:1021C0001092310310921B0375CF8091E30087FDBD
:1021D00093E090933103B6CF78941F921FB61F926D
:1021E00011248F939F93AF93BF9380911703909186
:1021F0001803A0911903B0911A030196A11DB11DF6
:102200008093170390931803A0931903B0931A03B4
:10221000BF91AF919F918F911F901FBE1F901895F6
:102220009C014FB7F8948091170390911803A091E7
:102230001903B0911A034FBF821B930B08952FB758
:10224000F8948091170390911803A0911903B0910D
:102250001A032FBF08950F931F93CF93DF93C62FB9
:10226000D42F022FFC0185818823A9F060936E038F
:102270000E941F1190936D0380936C03C77081E0DF
:1022800001C0880FCA95EAF70E945C0DDF91CF91DB
:102290001F910F91089580916E03681335C080914E
:1022A0006C0390916D030E9410118436910560F5C6
:1022B00010E21D0FCD17B9F080E28C0F883040F48A
:1022C000C77081E001C0880FCA95EAF70E94550DDA
:1022D000183048F481E09D2F977001C0880F9A95BF
:1022E000EAF70E945C0D802F0E94890D802F0E94CA
:1022F000660D183058F6D77081E001C0880FDA9566
:10230000EAF70E94550DC2CFC77081E001C0880F67
:10231000CA95EAF7F6CFB0E0A0E0E1E9F1E10C946C
:1023200093208C01FC018481882309F478C021E08A
:10233000408151816281738195810E949E09EC01E7
:10234000F80185818823E9F120E2F22ECC33D10512
:1023500020F4FE01E054FE4FF0801F92FF92DF93C5
:10236000CF93F80180811F928F9381811F928F9369
:102370008BE691E09F938F931F9288E18F938AEB76
:1023800092E09F938F930E94FA202DB73EB7225F71
:102390003F4F0FB6F8943EBF0FBE2DBF80911C0279
:1023A00090911D024497C1F080911C0290911D02F2
:1023B000FC01EE52FD4FF082019690931D02809336
:1023C0001C02FE01E851FC47E730F10508F043C06C
:1023D000E950FC4D0C94CE2010921D0210921C026C
:1023E000E2EDF2E086EE92E020E221938E179F0765
:1023F000E1F7DACF26E241EE61EEC8010E942B112F
:1024000080914702877059F0F8018581882339F05F
:1024100080918A0282FF03C082E00E944F09CDB7FB
:10242000DEB7EAE00C94AF2027E245EE65EEE5CF9B
:1024300026E241EE60EEE1CF27E245EE64EEDDCF2D
:1024400026E241EE62EED9CF27E245EE66EED5CF29
:1024500028E241E0EBCFF8018581882309F456C3D7
:1024600010926E03CE019057839708F039C384E031
:1024700090E00E94A12390938A0280938902FE013A
:10248000E150F047E232F10520F4E250FC4D0C94AB
:10249000CE208091890281608093890295C08091CD
:1024A0008A02886080938A028FC08091890282604C
:1024B000F3CF809189028460EFCF80918902886098
:1024C000EBCF80918A028160EDCF80918A02826099
:1024D000E9CF809189028061DFCF8091890280629B
:1024E000DBCF809189028064D7CF0E94B00A8091AF
:1024F00089028068D1CF809189028C60CDCF809194
:102500008A028360CFCF809189028E7FC5CF809170
:102510008A02877FC7CF809189028D7FBDCF80914E
:1025200089028B7FB9CF80918902877FB5CF809157
:102530008A028E7FB7CF80918A028D7FB3CF809140
:1025400089028F7EA9CF809189028F7DA5CF80914E
:1025500089028F7BA1CF0E94B00A809189028F7778
:102560009BCF80918902837F97CF80918A028C7F55
:1025700099CF8091890282FB992790F921E09227D7
:1025800090FB82F990FB83F987CF80918A02982F84
:10259000909591708E7F892B90FB81F983CF9091DC
:1025A0008902892F8F7B96FF806476CF0E94B00AC4
:1025B00090918902892F97FB87F980586DCF61E050
:1025C0008EE090E00E94B7236091890270918A02A8
:1025D00084E090E00E94D5230E94B00A11CF60E011
:1025E000EFCF90918902892F8F7E94FF806154CF25
:1025F00090918902892F8E7F90FF81604DCF9091BD
:102600008A02892F877F93FF88604CCF85E387C23A
:102610000E94B00AFFEF24E33CE0F150204030403C
:10262000E1F700C0000087E797E7909301088093E7
:10263000000888E19AE00FB6F894A89580936000AE
:102640000FBE90936000FFCF6FEF7FEF90E080E0D0
:102650000E94D5230E945E0E80918A0282FB882709
:1026600080F991E089270E94C40EF8018581C0811C
:10267000D181882309F44DC0CE010E948508F82E2F
:10268000682FCE010E94F908BE018F2D0E945707C6
:102690000E947607F82EC92FA82EF801C580B680B3
:1026A000B2949FE0B92280914702877009F1EC2C27
:1026B000CC20F9F08C2F807F803469F080E28F0D80
:1026C0008830B0F08C2F807E803229F4F1E0FF1545
:1026D00078F4BB2069F080918A0282FF09C082E011
:1026E0000E944F09809147028770EE24E394811184
:1026F000E12CDC2ED2948FE0D8222BE02D1508F4AB
:102700006AC0ED2DF0E0E05EFB4D0C94CE2080E041
:10271000AACFCE010E94C608F82EB6CFDC2FDF70FC
:10272000C07F11F0D295D07FCC20B9F0DD2369F0C5
:1027300080E28F0D883010F0A11009C08091520204
:10274000D82BD09352020E94750A8F2D42C08091DF
:102750004902D82BD0934902F6CF8F2D0E94660DE7
:10276000DD23C9F180E28F0D883010F0A11004C084
:102770008D2F0E94740806C0D09580914902D823FD
:10278000D09349020E94750A26C0DC2FDF70C07FFB
:10279000C03211F0D295D07FAA2059F031E0A316B3
:1027A00009F478C0CC2009F484C0BB2009F446C0E9
:1027B000CCCF80918A0282FD3DC0CC20A9F1DD23DF
:1027C00039F080915202D82BD09352020E94750AA0
:1027D00080E00E94890DED2DE850FF0B349710F436
:1027E0000E942206EE20A9F08091470280FD11C0D0
:1027F000F80115828695869586950E946609C8011E
:102800000E948B11809147028695869586950E943D
:102810003D0920E0F801408151816281738184810A
:1028200095810E949E09FBCD80E00E94660DDD230C
:1028300091F29ECFCC20A1F0B11004C08D2F0E9448
:102840005C0DC9CF81E0B812C6CF809148029D2FA0
:102850009823D91709F4BFCFD82BD0934802BBCF08
:10286000B110B9CF8D2F0E94550D909148028D2F38
:10287000892329F08D2F80958923809348028091A8
:102880001F029D2F982309F4A6CFD095D823D0936B
:102890001F02A1CFCC2029F095E09B1508F49BCF17
:1028A000CDCFE4E0EB1508F496CF8D2F0E94550DA7
:1028B00092CFBB20D1F3F9E3AF120BC12FEF37EE6C
:1028C00083E0215030408040E1F700C0000001C1AA
:1028D0008C2F837009F03FC0C1107DCF4F2D4295E2
:1028E00046954770440F440F2F2D2F7030E0042E73
:1028F00002C0220F331F0A94E2F790E080E0F4FE5A
:1029000009C08FE090E002C0880F991F4A95E2F756
:1029100080959095C695C695C370C23099F078F4AD
:102920004091870250918802C13039F0822B932B5D
:10293000842395230E9476094ECF242B352B822B9E
:10294000932BF8CF822B932B209187023091880212
:1029500082279327EFCF8695CC2011F08C2F8170A2
:10296000882309F438CF4F2D429546954770440F80
:10297000440F2F2D2F7030E0042E02C0220F331F82
:102980000A94E2F790E080E0F4FE09C08FE090E066
:1029900002C0880F991F4A95E2F780959095C695D9
:1029A000C695C370C23099F078F44091B802509146
:1029B000B902C13039F0822B932B842395230E94D6
:1029C0002F0909CF242B352B822B932BF8CF822B69
:1029D000932B2091B8023091B90282279327EFCF31
:1029E000CF70CC2029F08C2F0E9466098F2D27CF25
:1029F0008F2D0E94550D8C2F0E943D09ECCE8F2DFE
:102A000092EFA91699F19A1570F0E0EFAE16D1F099
:102A1000F1EFAF1691F0CC2009F456C0B11095CE6D
:102A20008C2F8F7127C023EFA21639F134EFA31238
:102A3000F2CF90918A0292FD2EC08C2F8F71CC2004
:102A4000D9F218C0CC2069F084E08B1508F4C3CE0D
:102A5000CF7181E090E002C0880F991FCA95E2F71C
:102A6000B8CF95E09B1508F4B6CEF2CF8C2F8F71BE
:102A7000C110C2CF0E946609AECE90E080E0CC20AB
:102A800009F49DCFCF7181E090E002C0880F991FBB
:102A9000CA95E2F794CFCC2061F08C2F8F7192FF12
:102AA000E9CFE8E08E9F9001112423602093470234
:102AB000E1CF81E00E944F09F1E0FB1508F08BCED9
:102AC00082E00E944F0987CEBB2039F0893309F498
:102AD000F5CE8F2D0E94660D7ECE8C2F8F718CCF00
:102AE000C631FCE7DF0749F5809152028A7A91E00E
:102AF00009F490E090931E0269E2811165E384E19C
:102B000092E00E9408060E94750A7ACCC631DC4722
:102B100009F0ABCD80911E02811178CD89E2E6E10A
:102B2000F2E02CE132E09191891303C0DF011197AB
:102B30001C922E173F07B9F7E6CFC3303CE7D30707
:102B400009F482CD50F4C1159CE7D90709F460CD92
:102B5000C130DC4709F47ECD88CDCB35FCE7DF07FB
:102B600009F4D5CDCC352CE7D20709F475CDCA359B
:102B7000DC4709F07ACD81E076CDCF93DF93809169
:102B80004602807F09F04DC080914502882309F4F8
:102B900048C0E0916B0350913203C0914102D09143
:102BA0004002609142027091430247E05E17C9F112
:102BB0008E2F90E0E49FF0011124ED5CFC4F248106
:102BC000222391F1489FF001499FF00D1124DF016C
:102BD000AD5CBC4F11962C9111972C1325C02C91F4
:102BE0002D1322C015962C91159721111DC01296F8
:102BF0002D913C91261B370B24363105A8F480918A
:102C000046028F70806180934602E75CFC4F8081B2
:102C10008F708061808380E492E00E948B110E941B
:102C20007B08DF91CF910895FC013196E770BECF0C
:102C3000A4E1B0E0EEE1F6E10C9491208C0186E095
:102C4000F801DE011F9601900D928A95E1F7F801D7
:102C50008481E58090E4A92E92E0B92E90914402FF
:102C6000911128C0882319F1EE20F1F0C8010E94CB
:102C70007B09F82E8823C1F087E0F801D501019087
:102C80000D928A95E1F780914402813031F4809170
:102C90004002909141020E94B9080E94BD158F2DFB
:102CA0006496ECE00C94AD20C8010E948B11FF24C7
:102CB000F394F5CFD080C18082809380F09045025C
:102CC0002091420230914302A401421B530BFF208A
:102CD00009F4E5C04436510508F09EC08823F9F296
:102CE0009091410280914602282F207F09F056C022
:102CF000C91214C090914002D91210C0E11048C00E
:102D00008F7080618093460280E492E00E948B1174
:102D100080914602F8018683F12CC1CFE11038C0C2
:102D20006C2D8D2D0E9467046C2D8D2D0E946704E3
:102D3000E82E8111F1CFDF86C88A8F8598890E949D
:102D4000B908292F22952F70243058F49F70223013
:102D500088F0992399F0F8019681907F79F4FE2C00
:102D60009ECF2A5F2F70223068F0C8010E948B111D
:102D7000EF2CF5CF992311F0882389F3805E8830FA
:102D800070F3F3CF803F58F3815F833070F7E7CF64
:102D900080914602816080934602BECFC91213C063
:102DA00090914002D9120FC0E1100DC08683C80176
:102DB0000E948B1187E0F801A0E4B2E001900D922F
:102DC0008A95E1F76CCFC8010E947B09882309F43A
:102DD0006BCFEE2009F468CF80914602803288F0F4
:102DE0002091400230914102398728879B868A864C
:102DF000909144029C871D868E87CE0108960E9482
:102E00008B1187E0F801A0E4B2E001900D928A9561
:102E1000E1F70E94BD154BCF90914602292F207FEC
:102E200051F480E492E00E948B1187E0F501119249
:102E30008A95E9F771CF882309F431CF8091410257
:102E40008C1110C080914002D8120CC0E1100AC051
:102E50009683C8010E948B1187E0F50111928A9533
:102E6000E9F71DCFC8010E947B09882309F41CCF14
:102E7000EE2009F419CF80914602803210F22091A1
:102E80004002309141023A8329839C828B82909147
:102E900044029D831E828F83CE010196B0CF4436BB
:102EA0005105D0F6882309F402CFFE2CEE2009F458
:102EB000FBCE809141028C1105C080914002D81652
:102EC00009F478CFC8010E947B0981119ACF8091C3
:102ED0004602816080934602C8010E948B11DFCEBA
:102EE000ABE1B0E0E6E7F7E10C9499204E8B5F8B05
:102EF000688F798F8A8F9B8F192F911110924902B9
:102F00001D8A86E0FE017696DE011F9601900D92E5
:102F10008A95E1F70A8D002341F021E04F85588919
:102F200069897A89C8010E949E090B8B1C8B87E0F6
:102F3000FE013F96DE01189601900D928A95E1F709
:102F4000CE0108960E94181681110CC087E0FE0180
:102F50003896DE01119601900D928A95E1F78C85E5
:102F600081110BC017E080916B039091320389139C
:102F700031C06B96E4E00C94B5202091320330E030
:102F8000C90101968770992740916B03481719066C
:102F900099F097E0929FD001939FB00D1124AD5C02
:102FA000BC4FFE01319601900D929A95E1F7809306
:102FB00032030E947B08D6CF0E94B00A10923203DF
:102FC00010926B0387E0E0E4F2E0DF011D928A9546
:102FD000E9F7C8CF819FC00111248D5C9C4F0E94EE
:102FE0001816882331F280916B0390E00196877068
:102FF000992780936B03B7CFAFE0B0E0E2E0F8E150
:103000000C9490208E010F5F1F4F8AE0F8011192FF
:103010008A95E9F78EEFC82E81E0D82EF12CE12CAD
:10302000AA24A394B12C29E0822E22E0922EF6014C
:1030300081916F018F3F09F442C0F894E82FE29527
:10304000EF70F0E021A18F70A50102C0440F551F61
:103050008A95E2F7CA01922F982B91A392A18095AD
:10306000892382A3789400C0E3E0F2E0712C31E080
:1030700021912F3F09F48CC0A22FA295AF70B0E030
:1030800090968C9190E02F7002C0959587952A9527
:10309000E2F780FD7DC0832F782A330F8E169F06BE
:1030A00039F7F601319780818F3F11F00E94350684
:1030B00050EA5A95F1F7F801EE0DFF1D70828FEF7F
:1030C000E81AF80AE5E0EE16F10409F0B0CF4AE09C
:1030D00050E0B8018BE792E00E94DD20009741F0BC
:1030E0002AE0F801ABE7B2E001900D922A95E1F7F2
:1030F0000091860210E005571D4F892B09F44AC044
:1031000081E0809357020E941F1190935602809392
:103110005502F12CE0901203EE2009F492C06E01EA
:10312000FBE0CF0ED11C85E0F60111928A95E9F7FC
:10313000809176028A3008F051C041E35FE0B60129
:10314000C8010E942B0E882309F46AC04BED5EE093
:10315000B601C8010E942B0E882309F461C01092A9
:1031600076028091850290E045E050E0B6018557F7
:103170009D4F0E94DD2021E020935E02892B09F003
:1031800042C0E12C8E2D8F292F96EDE00C94AC20BF
:1031900080E082CFF0905702FF2009F4BACF8091EF
:1031A0005502909156020E941011059708F4B1CF74
:1031B00045E050E06BE772E0C8010E94DD20892BFA
:1031C00059F085E0EBE7F2E0D80101900D928A9585
:1031D000E1F7109257029ECFF12CFBCF809158025D
:1031E000909159020E941011843F914008F0A5CFA0
:1031F00080915E02882329F285E0F60111928A957A
:10320000E9F710925E02A0918502B0E0A557BD4F8C
:1032100085E0FE013B9601900D928A95E1F7B2CFD1
:10322000809176028F3F31F08F5F809376028A30F3
:1032300008F497CF0E941F1190935902809358026F
:10324000D7CF85E0F801A9E6B2E001900D928A950A
:10325000E1F789E692E00E948604809368028090FC
:103260006E0290906F02A0907002B09071028091F7
:103270005A0290915B02A0915C02B0915D028816A7
:103280009906AA06BB0609F47DCF80925A02909255
:103290005B02A0925C02B0925D020E94FC05861A5D
:1032A000970AA80AB90A8092770290927802A092AF
:1032B0007902B0927A0266CFA6E0B0E0E2E6F9E1E8
:1032C0000C9499200E941F118C01809153029091BF
:1032D00054028017910781F019821A820E941F11EF
:1032E000682F49815A81792F80E090E00E94701701
:1032F00010935402009353022696E4E00C94B520F8
:103300001F921FB61F9211248F939F93AF93BF9369
:1033100080911603811113C08091170390911803B7
:10332000A0911903B0911A034196A11DB11D80937C
:10333000170390931803A0931903B0931A03BF9136
:10334000AF919F918F911F901FBE1F901895CDB781
:10335000DEB72A970FB6F894DEBF0FBECDBF85B794
:10336000806885BF85B7806885BF84B7877F84BF45
:103370000FB6F894A89580916000886180936000F2
:10338000109260000FBE80E890E00FB6F894809332
:103390006100909361000FBE83E396E09093130267
:1033A000809312020E94CF040E94EE048091E200FA
:1033B00084608093E2007894809131038823A1F0A7
:1033C0001091E9001F709091EC00892F817090FDA1
:1033D00080E8182B1092E9008091E80083FD0E949C
:1033E000BE0A1F701093E90082E084BD93E095BD92
:1033F0009AEF97BD80936E00109277021092780238
:103400001092790210927A028091D80080618093A4
:10341000D8002AE12A95F1F700C08091D900182F31
:10342000117080FD04C00E94CF04109231031093EC
:103430001203109313031093180111110E94151F0A
:10344000809118018091180195E0811190E090938E
:10345000860285E0891B809385020EEF11E0D8017A
:103460008D918D018F3F11F00E943506B2E003303F
:103470001B07A9F703E012E0F80181918F018F3F4C
:1034800011F00E943506F2E009301F07A9F78AE023
:10349000EBE8F2E0DF01682E1D926A94E9F7EBE7B2
:1034A000F2E0DF011D928A95E9F790E080E00E944A
:1034B000A123853E9E4F09F461C065EE7EEF90E04A
:1034C00080E00E94D52360E082E090E00E94B72374
:1034D00081E090E0909388028093870261E083E02E
:1034E00090E00E94B72360E074E184E090E00E94E5
:1034F000D52360E086E090E00E94B72360E087E09B
:1035000090E00E94B72340E050E0BA0188E090E0EC
:103510000E94C92360E083E290E00E94B72360E04C
:103520008CE090E00E94B72360E08DE090E00E9484
:10353000B72319821A821B821C821D821E821F825F
:10354000188648E050E067E170E0CE0101960E94E5
:10355000A72340E050E0BA018FE190E00E94C92328
:1035600040E050E0BA018FE090E00E94C92340E0C3
:1035700050E0BA0183E190E00E94C92382E090E02C
:103580000E9499238093950284E090E00E94A123F9
:1035900090938A028093890283E090E00E949923AD
:1035A00090E00E947609809112038111B7C082E0F9
:1035B0008093070380E880936F030E94B31D6BE044
:1035C00070E083EA92E00E94740E8823E9F1809112
:1035D000070365E070E081FDA3C08EE992E00E94E0
:1035E000740E882389F16DE070E08CE892E00E940F
:1035F000740E882349F10E94FC05605A75418F4F73
:103600009F4F60930C0370930D0380930E03909370
:103610000F03E2E7F3E080E092E0DF019C011D92FE
:1036200021503040E1F7F0937905E09378058FEF72
:103630009FEF909371038093700381E08093110357
:10364000809310031092080380911203811102C02D
:103650000E94181F89E191E0909315038093140351
:1036600022242394312C80913103853049F48091B8
:103670003103853009F457C00E94B00A0E94220627
:103680000E94FC1706E912E06BE8E62E62E0F62ED7
:10369000D701F80191918D9122E0E03AF20709F407
:1036A00079C09817B9F380901203D12CD701CD902F
:1036B0007D01F80191908F019C1439F19C24B12C6B
:1036C000AA24A394892D8A21B9F08820A9F0B9826F
:1036D000DA820E941F119C838B83F1E0FD8391E0CD
:1036E0008C2D8A2109F490E09E8349815A816B8157
:1036F0007C818D810E947017B394AA0C56E0652ED0
:10370000B610E0CFF8013197C082D3942AE0D212EC
:10371000CDCF0E944C06DD24D39441C080E048CF39
:1037200089E992E05CCF80913103843031F10E94CD
:10373000810E1092160388E190E0A0E40FB6F89491
:10374000A895809360000FBEA093600083B7817F2F
:10375000846083BF83B7816083BF7894889583B783
:103760008E7F83BF0FB6F894A89580916000886122
:1037700080936000109260000FBE0E94FC17EBE87F
:10378000F2E08191811180C125E932E02E173F07D7
:10379000C1F76DCF981387CF0E945C19D12C80910F
:1037A0001103882309F482C0109112038091090348
:1037B00090910A030E941011C29708F458C00E9409
:1037C0001F1190930A038093090382E793E090937B
:1037D000790580937805112309F47AC08091B802A5
:1037E0009091B9028430910509F46FC0E0F400971C
:1037F00019F165E971E08230910501F19F938F9392
:1038000080EB91E09F938F931F9288E18F9380EAE2
:1038100092E09F938F930E94FA200FB6F894DEBF38
:103820000FBECDBF0FC08830910519F08E309105C5
:1038300029F762EA71E002C06CE771E080EA92E089
:103840000E94F32080EA92E00E94C20D81E00E9473
:10385000430A8AEB92E00E94C20D81E00E94430A73
:1038600082ED92E00E94C20D81E00E94430A8091A5
:10387000700390917103892B81F580911003882347
:10388000A9F00E94FC0500910C0310910D032091FA
:103890000E0330910F03601B710B820B930B6F3F74
:1038A0007F4F8F4F9F4710F40E94810ED1100E94CE
:1038B0009C0E0E94220690910B03891709F4D3CE27
:1038C00080930B030E94FC05CECE68E871E0B6CF72
:1038D00083E291E00E94C20DCACF80911103882338
:1038E00061F2809108038111C8CF0E949C0E209143
:1038F0007003309171032115310509F4BECF80E0CA
:10390000082F10E07101082E02C0EE0CFF1C0A9473
:10391000E2F7A70142235323452B11F48F5FF0CF29
:103920009091070390FF97C0880F880F880F8093AE
:10393000650110926801895F8093660183E080933E
:10394000690124E630E047E050E063E671E088E793
:103950000E94E71D892B09F090CFA80125E0440FB4
:10396000551F2A95E1F78091070380FF86C0E7EE97
:10397000F2E080E2DF011D928A95E9F70DE012E0A6
:10398000E9E0F2E0FA87E98781E1482E82E0582EEB
:1039900097E0992ED801ED918D01A985BA856D9199
:1039A000BA87A987640F752F711D6E587C4FF0E0A0
:1039B000E951FD4F30E020E0792C721AC22C022E22
:1039C00001C0CC0C0A94EAF75B0190E0D5018D911F
:1039D0005D018C21A72DA91BA7708A2E0A2E000C31
:1039E000BB0B682E01C0660C8A94EAF7862CB19551
:1039F000A195B109A770BB2701C08695AA95EAF7E2
:103A0000882A8081882A80829F5F9830F9F62F5F0C
:103A10003F4F31962830310579F64016510609F0AE
:103A2000B9CF04E610E020E230E047EE52E060E477
:103A300088E70E94711E892B09F01FCFE094F09453
:103A40008091700390917103E822F922F092710342
:103A5000E092700312CF8295880F80768093650183
:103A60009801369527953695279520936801815EB4
:103A7000809366012093690164CF4E585C4F04E641
:103A800010E020E230E0D3CF80912703882309F4AF
:103A9000EECD30E139BD82E189BD09B400FEFDCF34
:103AA0008091D8008F7D8093D8008091E000826063
:103AB0008093E0008091E00081FDFCCF0E94B00A7D
:103AC000D6CDEF92FF920F931F93CF93DF93182FD2
:103AD000EB011092BC0084EA8093BC000E941F118D
:103AE0007C018091BC0087FF27C08091B900887F4E
:103AF000883029F08091B900887F803189F5109352
:103B0000BB0084E88093BC000E941F118C0180914F
:103B1000BC0087FF1EC02091B900287F90E080E0A4
:103B2000283191F081E090E0203411F490E080E0C1
:103B300091958195910908C0C7010E941011C8177D
:103B4000D90778F68EEF9FEFCDB7DEB7E6E00C949D
:103B5000B320C8010E941011C817D907C0F6F2CFD0
:103B60008FEF9FEFF1CF1092B9008CE08093B800F7
:103B700008950F931F93CF93DF93EB018093BB00C6
:103B800084E88093BC000E941F118C018091BC00CE
:103B900087FF11C02091B900287F81E090E0283292
:103BA00011F490E080E0919581959109DF91CF919A
:103BB0001F910F910895CF3FDC0741F3C8010E9488
:103BC0001011C817D90710F78EEF9FEFEFCFB0E0B5
:103BD000A0E0EDEEFDE10C949020782E5B016A01EF
:103BE00089010E941F114C01C1E0D0E00431110590
:103BF00058F0C5E0D0E00F3F100731F0C80164E194
:103C000070E00E947720EB01BE01872D0E94611DAC
:103C10007C0197FF09C00F3F1007B1F3C4010E9458
:103C200010110817190780F7E501CA0CDB1CCC1529
:103C3000DD0511F0F7FE09C084E98093BC00C701DF
:103C4000CDB7DEB7EDE00C94AC20B80189910E94AD
:103C5000B91D7C01ECCFB0E0A0E0E1E3FEE10C9403
:103C60009020782E5B016A0189010E941F114C018E
:103C7000C1E0D0E00431110558F0C5E0D0E00F3FBD
:103C8000100731F0C80164E170E00E947720EB0179
:103C9000BE01872D0E94611D7C0197FF09C00F3F67
:103CA0001007B1F3C4010E9410110817190780F71B
:103CB000E501CA0CDB1CCC15DD0511F0F7FE09C0CF
:103CC00084E98093BC00C701CDB7DEB7EDE00C946A
:103CD000AC20FE018491B8010E94B91D7C0121969F
:103CE000EACFB0E0A0E0E7E7FEE10C948F20682E79
:103CF000762E5A0169010E941F114C01C1E0D0E0EB
:103D00000431110558F0C5E0D0E00F3F100731F045
:103D1000C80164E170E00E947720EB01BE01862DAE
:103D20000E94611D7C0197FF1DC00F3F1007B1F37A
:103D3000C4010E9410110817190780F784E98093C5
:103D4000BC00C701CDB7DEB7EEE00C94AB20B801E4
:103D500089910E94B91D7C01CC16DD0679F3F7FE2E
:103D6000F6CFECCFB801872D0E94B91D7C01E5018B
:103D7000CA0CDB1CF1CF8EE14A9B02C08150E1F7F7
:103D80004A9BFECF08955A9880E28A95F1F75A9A95
:103D90000895FC013BE03A95F1F798E020E080E0DF
:103DA00031E040E14A95F1F7880F4A9B02C08160FB
:103DB000232742E04A95F1F7000040E14A95F1F7E8
:103DC000915079F790E19A95F1F799B132E03A95EF
:103DD000F1F7000040E14A95F1F792FB992790F93D
:103DE00092272081920F90830895A1E0B0E0EBEF3D
:103DF000FEE10C94972019828C017C01E60EF11CE7
:103E00000E151F0541F481E09981911180E0219602
:103E1000E6E00C94B3200E94BB1ECE0101960E94E6
:103E2000C91EF80181938F01EBCF529A5A9A0895D7
:103E300052985A9AEA9AE9E6F0E080818F7C808372
:103E400008956150770B91E001C0990F6A95EAF7E8
:103E500020E031E0911108C0222391F05A9A80E2CB
:103E60008A95F1F75A980895492F482339F05A9ABC
:103E7000232740E24A95F1F79695ECCF5A98F9CF6F
:103E80005A98EDCFFF920F931F93CF93DF93EC01DE
:103E90008C01060F111DC017D10729F4CDB7DEB76D
:103EA000E5E00C94B420F9900E94C31E68E08F2DC9
:103EB0000E94211FF0CF1F920F920FB60F92112474
:103EC0000F931F932F933F934F935F936F937F9322
:103ED0008F939F93AF93BF93EF93FF93CF93DF9312
:103EE0000F92CDB7DEB719820E94BB1ECE0101969C
:103EF0000E94C91E082F069506950695282F229523
:103F00002570902F9570290F922F937026952695E6
:103F1000920F982797708981982B09F05CC0043024
:103F200008F059C080E18A95F1F75A9A529A82E0D6
:103F30008A95F1F700C05A9888E0089F8001112403
:103F4000D801A050BF4F1696ED91FC91179730976E
:103F5000A9F06091FC017091FD0114962D913C91A6
:103F60001597260F371F11968D919C911297680F08
:103F7000791F13964C9113978C910995F801E05095
:103F8000FF4F6381662351F02091FC013091FD01C8
:103F900084819581820F931F0E94421F0E94C31E3D
:103FA00080E18A95F1F75A9852985A9A80E18A9559
:103FB000F1F7F801E050FF4F6081662351F0209146
:103FC000FC013091FD0181819281820F931F0E943B
:103FD000F51E0E94BB1E0F90DF91CF91FF91EF91D4
:103FE000BF91AF919F918F917F916F915F914F9111
:103FF0003F912F911F910F910F900FBE0F901F9027
:1040000018950F931F93CF93DF93EC0104970CF057
:104010004CC0F894529A5A9885E08A95F1F70000BE
:104020009C2F969595708C2F8570980F892F837093
:104030009695969523E0CC0FDD1F2A95E1F7980F12
:104040008E01092B0E94C31E00C068E0802F0E94D1
:10405000211F80E18A95F1F752985A9A4A9B1EC017
:1040600087E090E04A991CC0FE01E050FF4F638159
:104070006623F9F02091FC013091FD018481958146
:10408000820F931F0E94F51E811113C0529A5A9AF3
:104090007894DF91CF911F910F91089500C0DECFEA
:1040A000019729F4529A5A9A789480E0F2CF00C08E
:1040B000D9CF0E94BB1E80E28A95F1F75A98529A96
:1040C00080E18A95F1F7C050DF4F6881662351F097
:1040D0002091FC013091FD0189819A81820F931F0B
:1040E0000E94421F0E94C31E789481E0D2CFAA1B77
:1040F000BB1B51E107C0AA1FBB1FA617B70710F0D3
:10410000A61BB70B881F991F5A95A9F78095909504
:10411000BC01CD0108952F923F924F925F926F9212
:104120007F928F929F92AF92BF92CF92DF92EF9247
:10413000FF920F931F93CF93DF93CDB7DEB7CA1BC8
:10414000DB0B0FB6F894DEBF0FBECDBF09942A88F3
:10415000398848885F846E847D848C849B84AA849B
:10416000B984C884DF80EE80FD800C811B81AA8128
:10417000B981CE0FD11D0FB6F894DEBF0FBECDBFF3
:10418000ED010895991B79E004C0991F961708F076
:10419000961B881F7A95C9F780950895EE0FFF1F2B
:1041A0000590F491E02D0994FB01DC0102C005901B
:1041B0000D9241505040D8F70895FB01DC0104C036
:1041C0008D910190801921F441505040C8F7881B0F
:1041D000990B0895FB01DC0102C001900D92415042
:1041E0005040D8F70895FB01DC0101900D920020AA
:1041F000E1F70895AEE0B0E0E0E0F1E20C94992040
:104200000D891E898F89988D26E02C831A83098356
:1042100097FF02C080E090E801979E838D83AE01F6
:10422000455E5F4F698D7A8DCE0101960E942A21ED
:104230004D815E8157FD0AC02F8138854217530793
:104240000CF49A01020F131FF80110822E96E4E07D
:104250000C94B520ABE0B0E0E0E3F1E20C948B20ED
:104260007C013B018A01FC0117821682838181FF58
:10427000B9C19AE0292ECE0101965C01F701938124
:10428000F30193FD859193FF81913F01882309F408
:1042900046C1853239F493FD859193FF81913F01A9
:1042A000853229F4B70190E00E940B23E7CF912CCF
:1042B000412C512CFFE1F51538F08B3209F188F4CF
:1042C000803201F1833221F157FC3AC020ED280FF2
:1042D0002A3040F556FE1FC0929C200D1124922ECC
:1042E00006C08D3291F0803379F7689450F8F3016D
:1042F00093FD859193FF81913F018111DBCF20C018
:10430000689451F8689452F8F2CF689453F8EFCF5C
:10431000689454F8ECCF429C200D1124422E6894EE
:1043200055F8E5CF8E3229F456FCF9C0689456F85A
:10433000DECF8C3619F4689457F8D9CF8836B9F2A5
:10434000982F9F7D95549330C0F08336A1F1833729
:10435000C1F1833509F05BC0F801C190D1908F01A4
:10436000692D70E056FC02C06FEF7FEFC6010E941E
:10437000F5224C01689457F80AC00C5F1F4F2FE3D9
:10438000298388248394912C6501E89457F853FC81
:1043900004C04814190409F018F5342C8114910450
:1043A00031F5332009F46ACFB70180E290E00E9432
:1043B0000B233A94F6CFF801808189830E5F1F4F5B
:1043C000E0CFF801C190D1908F01692D70E056FCCB
:1043D00002C06FEF7FEFC6010E9400234C01D5CFD2
:1043E000B70180E290E00E940B234A94D2CFF601FD
:1043F00057FC859157FE81916F01B70190E00E94B3
:104400000B2331103A94F1E08F1A9108C7CF84360C
:1044100019F0893609F074C0F80157FE6AC061913D
:104420007191819191918F01252D2F76D22E97FF39
:1044300009C090958095709561957F4F8F4F9F4FE4
:104440006894D7F82AE030E0A5010E943B23C82EEB
:10445000CA188C2C5D2CD6FE0CC0E89450F8C914F8
:1044600040F4D4FE05C0D2FC03C0FD2DFE7E5F2EBD
:10447000892C54FE8FC0FE01EC0DF11D808180332C
:1044800009F081C0252D297E522E852D8870382E69
:1044900053FC8FC050FE89C09C2C841418F44C0C23
:1044A000942C981854FE8BC0B70180E390E00E94D2
:1044B0000B2352FE09C088E790E051FE02C088E558
:1044C00090E0B7010E940B23C91408F484C0CA9479
:1044D000D12C9FEFC91AD90ACA0CDB1CF6018291B4
:1044E0006F01B70190E00E940B23AC14BD04B1F73B
:1044F00058CF61917191072E000C880B990B93CFC7
:10450000D52CE894D4F82AE030E0853739F1952DA0
:10451000997FD92E8F3601F148F48835A9F0F7013B
:10452000868197812B96E2E10C94A720803749F091
:104530008837A9F7D4FE02C06894D2F820E130E0B1
:104540000DC06894D4F8F6CF54FE03C0E92FE6609E
:10455000DE2E20E132E002C028E030E0F801D7FE94
:104560000DC061917191819191918F01A5010E947E
:104570003B23C82ECA18E894D7F86BCF619171918C
:1045800090E080E0F2CF52FC02C083947ECF83940F
:1045900083947BCF852D867809F477CFF6CFB7014A
:1045A00080E290E00E940B2383948414C0F3312CAA
:1045B00079CF342C3818841408F474CFF8CF852DB3
:1045C000867809F481CF8BE251FE80E257FC8DE2C0
:1045D000B70190E077CFB70180E390E00E940B2312
:1045E0009A9472CF8FEF9FEF9DCFFC0105906150A1
:1045F00070400110D8F7809590958E0F9F1F0895F9
:10460000FC016150704001900110D8F780959095A1
:104610008E0F9F1F08950F931F93CF93DF93182F33
:10462000092FEB018B8181FD09C01FEF0FEF812F57
:10463000902FDF91CF911F910F91089582FF14C0A9
:104640002E813F818C819D81281739073CF4E881B8
:10465000F981CF0101969983888310838E819F8190
:1046600001969F838E83E3CFE885F985812F099595
:10467000892BA1F3DACFFA01AA27283051F1203192
:1046800081F1E8946F936E7F6E5F7F4F8F4F9F4FE6
:10469000AF4FB1E03ED0B4E03CD0670F781F891F28
:1046A0009A1FA11D680F791F8A1F911DA11D6A0FF6
:1046B000711D811D911DA11D20D009F468943F91A9
:1046C0002AE0269F11243019305D3193DEF6CF01A8
:1046D0000895462F4770405D4193B3E00FD0C9F76E
:1046E000F6CF462F4F70405D4A3318F0495D31FDDB
:1046F0004052419302D0A9F7EACFB4E0A69597952E
:10470000879577956795BA95C9F700976105710503
:1047100008959B01AC010A2E06945795479537954D
:104720002795BA95C9F7620F731F841F951FA01DA7
:104730000895F999FECF92BD81BDF89A992780B569
:104740000895A8E1B0E042E050E00C94DD23DC01E4
:10475000A40FB51F4150504048F0CB01840F951F66
:104760002E910E94B82341505040D0F70895262F33
:10477000F999FECF92BD81BDF89A019700B4021657
:1047800039F01FBA20BD0FB6F894FA9AF99A0FBE05
:1047900008950396272F0E94B8230E94B723252F40
:1047A0000E94B823242F0C94B8230196272F0E942F
:1047B000B8230C94B723DC01CB01FC01F999FECF9F
:1047C00006C0F2BDE1BDF89A319600B40D92415099
:1047D0005040B8F70895F894FFCF9D0BC50B430DDB
:1047E000C50B430DF80B190C430D030D0F0D1812DB
:1047F0001C12FA1114122012241228128312F81219
:104800008B12551259128F125D1293129F12691258
:10481000F1126D12A3127112A712CF127512AB1200
:10482000D6127B12B112B9126112971265129B1245
:104830007F12B512C512DF12EF124F128712FF124C
:104840008E138E13C513C513EB13EB13EB13EB137E
:084850006814F014FF14FF14BA
:104858000000000100000000000000050100000049
:10486800040600000000000001F9051B0EF605F81B
:1048780005F705808182838485868788898A8B8C61
:104888008D8E8F9091929394A0A1A2A3A4A5A6A780
:10489800A8A9AAABACADAEAFB0B1B2B3B4C0C1C2F7
:1048A800C3C4C5C6C7C8C9CACBCCCDCECFD0D1D258
:1048B800D3D4000021007F220003012564782564F9
:1048C8002C206B253264203A202563004C617965E1
:1048D800723A2042617365004C617965723A2052E0
:1048E80061697365004C617965723A204C6F776530
:1048F80072004C617965723A2041646A757374007C
:104908004C617965723A20556E6465662D2575008F
:10491800202020206162636465666768696A6B6C41
:104928006D6E6F707172737475767778797A3132CB
:104938003334353637383930524542542020202018
:104948002020203B27202C2E2F202020680266972D
:10495800C63435F6F7313332360008101818100807
:0249680000004D
:00000001FF
